{
  "_format": "hh-sol-artifact-1",
  "contractName": "LiquidityPools",
  "sourceName": "contracts/DeFI.sol",
  "abi": [
    {
      "inputs": [
        {
          "internalType": "address",
          "name": "_gameShop",
          "type": "address"
        }
      ],
      "stateMutability": "nonpayable",
      "type": "constructor"
    },
    {
      "inputs": [
        {
          "internalType": "address",
          "name": "owner",
          "type": "address"
        }
      ],
      "name": "OwnableInvalidOwner",
      "type": "error"
    },
    {
      "inputs": [
        {
          "internalType": "address",
          "name": "account",
          "type": "address"
        }
      ],
      "name": "OwnableUnauthorizedAccount",
      "type": "error"
    },
    {
      "anonymous": false,
      "inputs": [
        {
          "indexed": true,
          "internalType": "address",
          "name": "previousOwner",
          "type": "address"
        },
        {
          "indexed": true,
          "internalType": "address",
          "name": "newOwner",
          "type": "address"
        }
      ],
      "name": "OwnershipTransferred",
      "type": "event"
    },
    {
      "inputs": [
        {
          "internalType": "uint256",
          "name": "poolId",
          "type": "uint256"
        },
        {
          "internalType": "uint256",
          "name": "gameTokenAmount",
          "type": "uint256"
        },
        {
          "internalType": "uint256",
          "name": "vsTokenAmount",
          "type": "uint256"
        }
      ],
      "name": "addLiquidity",
      "outputs": [],
      "stateMutability": "nonpayable",
      "type": "function"
    },
    {
      "inputs": [
        {
          "internalType": "address",
          "name": "gameToken",
          "type": "address"
        },
        {
          "internalType": "address",
          "name": "vsToken",
          "type": "address"
        },
        {
          "internalType": "uint256",
          "name": "gameTokenAmount",
          "type": "uint256"
        },
        {
          "internalType": "uint256",
          "name": "vsTokenAmount",
          "type": "uint256"
        }
      ],
      "name": "createLiquidityPool",
      "outputs": [],
      "stateMutability": "nonpayable",
      "type": "function"
    },
    {
      "inputs": [],
      "name": "owner",
      "outputs": [
        {
          "internalType": "address",
          "name": "",
          "type": "address"
        }
      ],
      "stateMutability": "view",
      "type": "function"
    },
    {
      "inputs": [],
      "name": "renounceOwnership",
      "outputs": [],
      "stateMutability": "nonpayable",
      "type": "function"
    },
    {
      "inputs": [
        {
          "internalType": "uint256",
          "name": "poolId",
          "type": "uint256"
        },
        {
          "internalType": "address",
          "name": "token",
          "type": "address"
        },
        {
          "internalType": "uint256",
          "name": "amount",
          "type": "uint256"
        }
      ],
      "name": "swap",
      "outputs": [],
      "stateMutability": "nonpayable",
      "type": "function"
    },
    {
      "inputs": [
        {
          "internalType": "address",
          "name": "newOwner",
          "type": "address"
        }
      ],
      "name": "transferOwnership",
      "outputs": [],
      "stateMutability": "nonpayable",
      "type": "function"
    },
    {
      "inputs": [],
      "name": "viewPools",
      "outputs": [
        {
          "components": [
            {
              "internalType": "uint256",
              "name": "id",
              "type": "uint256"
            },
            {
              "internalType": "address",
              "name": "gameToken",
              "type": "address"
            },
            {
              "internalType": "address",
              "name": "vsToken",
              "type": "address"
            },
            {
              "internalType": "uint256",
              "name": "gameTokenAmount",
              "type": "uint256"
            },
            {
              "internalType": "uint256",
              "name": "vsTokenAmount",
              "type": "uint256"
            }
          ],
          "internalType": "struct LiquidityPools.Pool[]",
          "name": "p",
          "type": "tuple[]"
        }
      ],
      "stateMutability": "view",
      "type": "function"
    }
  ],
  "bytecode": "0x608060405234801561001057600080fd5b50604051610d47380380610d4783398101604081905261002f916100d9565b338061005557604051631e4fbdf760e01b81526000600482015260240160405180910390fd5b61005e81610089565b50600280546001600160a01b0319166001600160a01b03929092169190911790556000600355610109565b600080546001600160a01b038381166001600160a01b0319831681178455604051919092169283917f8be0079c531659141344cd1fd0a4f28419497f9722a3daafe3b4186f6b6457e09190a35050565b6000602082840312156100eb57600080fd5b81516001600160a01b038116811461010257600080fd5b9392505050565b610c2f806101186000396000f3fe608060405234801561001057600080fd5b506004361061006d5760003560e01c8063422f104314610072578063432643491461008757806343c354ad1461009a578063715018a6146100b85780638da5cb5b146100c0578063ae2f3768146100d5578063f2fde38b146100e8575b600080fd5b610085610080366004610933565b6100fb565b005b61008561009536600461097b565b6102d0565b6100a261052e565b6040516100af91906109b0565b60405180910390f35b610085610653565b6100c8610667565b6040516100af9190610a2a565b6100856100e3366004610a3e565b610676565b6100856100f6366004610a80565b61084b565b6000838152600160208190526040909120908101546001600160a01b03166323b872dd33610127610667565b866040518463ffffffff1660e01b815260040161014693929190610aa2565b6020604051808303816000875af1158015610165573d6000803e3d6000fd5b505050506040513d601f19601f820116820180604052508101906101899190610ac6565b6101d35760405162461bcd60e51b8152602060048201526016602482015275151bdad95b90481d1c985b9cd9995c8819985a5b195960521b60448201526064015b60405180910390fd5b60028101546001600160a01b03166323b872dd336101ef610667565b856040518463ffffffff1660e01b815260040161020e93929190610aa2565b6020604051808303816000875af115801561022d573d6000803e3d6000fd5b505050506040513d601f19601f820116820180604052508101906102519190610ac6565b6102965760405162461bcd60e51b8152602060048201526016602482015275151bdad95b90881d1c985b9cd9995c8819985a5b195960521b60448201526064016101ca565b828160030160008282546102aa9190610afe565b92505081905550818160040160008282546102c59190610afe565b909155505050505050565b6000838152600160208190526040909120908101546001600160a01b038481169116148061030d575060028101546001600160a01b038481169116145b61034d5760405162461bcd60e51b815260206004820152601160248201527024b73b30b634b210333937b6aa37b5b2b760791b60448201526064016101ca565b60018101546001600160a01b039081169084160361044957600061037a8260030154836004015485610889565b600283015460405163a9059cbb60e01b8152336004820152602481018390529192506001600160a01b03169063a9059cbb906044016020604051808303816000875af11580156103ce573d6000803e3d6000fd5b505050506040513d601f19601f820116820180604052508101906103f29190610ac6565b61040e5760405162461bcd60e51b81526004016101ca90610b17565b828260030160008282546104229190610afe565b925050819055508082600401600082825461043d9190610b3c565b90915550610528915050565b600061045e8260040154836003015485610889565b600183015460405163a9059cbb60e01b8152336004820152602481018390529192506001600160a01b03169063a9059cbb906044016020604051808303816000875af11580156104b2573d6000803e3d6000fd5b505050506040513d601f19601f820116820180604052508101906104d69190610ac6565b6104f25760405162461bcd60e51b81526004016101ca90610b17565b828260040160008282546105069190610afe565b92505081905550808260030160008282546105219190610b3c565b9091555050505b50505050565b606060035467ffffffffffffffff81111561054b5761054b610b4f565b6040519080825280602002602001820160405280156105c057816020015b6105ad6040518060a001604052806000815260200160006001600160a01b0316815260200160006001600160a01b0316815260200160008152602001600081525090565b8152602001906001900390816105695790505b50905060005b60035481101561064f57600081815260016020818152604092839020835160a08101855281548152928101546001600160a01b0390811692840192909252600281015490911692820192909252600382015460608201526004909101546080820152825183908390811061063c5761063c610b65565b60209081029190910101526001016105c6565b5090565b61065b6108b1565b61066560006108e3565b565b6000546001600160a01b031690565b83836001600160a01b0382166323b872dd33610690610667565b876040518463ffffffff1660e01b81526004016106af93929190610aa2565b6020604051808303816000875af11580156106ce573d6000803e3d6000fd5b505050506040513d601f19601f820116820180604052508101906106f29190610ac6565b61070e5760405162461bcd60e51b81526004016101ca90610b7b565b806001600160a01b03166323b872dd33610726610667565b866040518463ffffffff1660e01b815260040161074593929190610aa2565b6020604051808303816000875af1158015610764573d6000803e3d6000fd5b505050506040513d601f19601f820116820180604052508101906107889190610ac6565b6107a45760405162461bcd60e51b81526004016101ca90610b7b565b6040805160a081018252600380548083526001600160a01b03808b1660208086019182528b8316868801908152606087018c8152608088018c8152600096875260019384905298862088518155935192840180549386166001600160a01b031994851617905590516002840180549190951692169190911790925590518184015593516004909401939093558054919261083d83610ba7565b919050555050505050505050565b6108536108b1565b6001600160a01b03811661087d576000604051631e4fbdf760e01b81526004016101ca9190610a2a565b610886816108e3565b50565b60006108958285610afe565b61089f8484610bc0565b6108a99190610bd7565b949350505050565b336108ba610667565b6001600160a01b031614610665573360405163118cdaa760e01b81526004016101ca9190610a2a565b600080546001600160a01b038381166001600160a01b0319831681178455604051919092169283917f8be0079c531659141344cd1fd0a4f28419497f9722a3daafe3b4186f6b6457e09190a35050565b60008060006060848603121561094857600080fd5b505081359360208301359350604090920135919050565b80356001600160a01b038116811461097657600080fd5b919050565b60008060006060848603121561099057600080fd5b833592506109a06020850161095f565b9150604084013590509250925092565b602080825282518282018190526000919060409081850190868401855b82811015610a1d57815180518552868101516001600160a01b0390811688870152868201511686860152606080820151908601526080908101519085015260a090930192908501906001016109cd565b5091979650505050505050565b6001600160a01b0391909116815260200190565b60008060008060808587031215610a5457600080fd5b610a5d8561095f565b9350610a6b6020860161095f565b93969395505050506040820135916060013590565b600060208284031215610a9257600080fd5b610a9b8261095f565b9392505050565b6001600160a01b039384168152919092166020820152604081019190915260600190565b600060208284031215610ad857600080fd5b81518015158114610a9b57600080fd5b634e487b7160e01b600052601160045260246000fd5b80820180821115610b1157610b11610ae8565b92915050565b6020808252600b908201526a14ddd85c0819985a5b195960aa1b604082015260600190565b81810381811115610b1157610b11610ae8565b634e487b7160e01b600052604160045260246000fd5b634e487b7160e01b600052603260045260246000fd5b6020808252601290820152712330b4b632b2103a37903a3930b739b332b960711b604082015260600190565b600060018201610bb957610bb9610ae8565b5060010190565b8082028115828204841417610b1157610b11610ae8565b600082610bf457634e487b7160e01b600052601260045260246000fd5b50049056fea2646970667358221220443e09b19076e3ae229a5577eb0a955b5f6c8b09a2c0143caa5eb97d98c1973964736f6c63430008180033",
  "linkReferences": {},
  "deployedLinkReferences": {}
}