{
  "_format": "hh-sol-artifact-1",
  "contractName": "GameNFT",
  "sourceName": "contracts/GameNFT.sol",
  "abi": [
    {
      "inputs": [
        {
          "internalType": "string",
          "name": "name",
          "type": "string"
        },
        {
          "internalType": "string",
          "name": "abbr",
          "type": "string"
        },
        {
          "internalType": "string[]",
          "name": "passedKeys",
          "type": "string[]"
        },
        {
          "internalType": "uint256[]",
          "name": "passedValues",
          "type": "uint256[]"
        }
      ],
      "stateMutability": "nonpayable",
      "type": "constructor"
    },
    {
      "inputs": [
        {
          "internalType": "address",
          "name": "sender",
          "type": "address"
        },
        {
          "internalType": "uint256",
          "name": "tokenId",
          "type": "uint256"
        },
        {
          "internalType": "address",
          "name": "owner",
          "type": "address"
        }
      ],
      "name": "ERC721IncorrectOwner",
      "type": "error"
    },
    {
      "inputs": [
        {
          "internalType": "address",
          "name": "operator",
          "type": "address"
        },
        {
          "internalType": "uint256",
          "name": "tokenId",
          "type": "uint256"
        }
      ],
      "name": "ERC721InsufficientApproval",
      "type": "error"
    },
    {
      "inputs": [
        {
          "internalType": "address",
          "name": "approver",
          "type": "address"
        }
      ],
      "name": "ERC721InvalidApprover",
      "type": "error"
    },
    {
      "inputs": [
        {
          "internalType": "address",
          "name": "operator",
          "type": "address"
        }
      ],
      "name": "ERC721InvalidOperator",
      "type": "error"
    },
    {
      "inputs": [
        {
          "internalType": "address",
          "name": "owner",
          "type": "address"
        }
      ],
      "name": "ERC721InvalidOwner",
      "type": "error"
    },
    {
      "inputs": [
        {
          "internalType": "address",
          "name": "receiver",
          "type": "address"
        }
      ],
      "name": "ERC721InvalidReceiver",
      "type": "error"
    },
    {
      "inputs": [
        {
          "internalType": "address",
          "name": "sender",
          "type": "address"
        }
      ],
      "name": "ERC721InvalidSender",
      "type": "error"
    },
    {
      "inputs": [
        {
          "internalType": "uint256",
          "name": "tokenId",
          "type": "uint256"
        }
      ],
      "name": "ERC721NonexistentToken",
      "type": "error"
    },
    {
      "anonymous": false,
      "inputs": [
        {
          "indexed": true,
          "internalType": "address",
          "name": "owner",
          "type": "address"
        },
        {
          "indexed": true,
          "internalType": "address",
          "name": "approved",
          "type": "address"
        },
        {
          "indexed": true,
          "internalType": "uint256",
          "name": "tokenId",
          "type": "uint256"
        }
      ],
      "name": "Approval",
      "type": "event"
    },
    {
      "anonymous": false,
      "inputs": [
        {
          "indexed": true,
          "internalType": "address",
          "name": "owner",
          "type": "address"
        },
        {
          "indexed": true,
          "internalType": "address",
          "name": "operator",
          "type": "address"
        },
        {
          "indexed": false,
          "internalType": "bool",
          "name": "approved",
          "type": "bool"
        }
      ],
      "name": "ApprovalForAll",
      "type": "event"
    },
    {
      "anonymous": false,
      "inputs": [
        {
          "indexed": true,
          "internalType": "address",
          "name": "from",
          "type": "address"
        },
        {
          "indexed": true,
          "internalType": "address",
          "name": "to",
          "type": "address"
        },
        {
          "indexed": true,
          "internalType": "uint256",
          "name": "tokenId",
          "type": "uint256"
        }
      ],
      "name": "Transfer",
      "type": "event"
    },
    {
      "inputs": [
        {
          "internalType": "address",
          "name": "to",
          "type": "address"
        },
        {
          "internalType": "uint256",
          "name": "tokenId",
          "type": "uint256"
        }
      ],
      "name": "approve",
      "outputs": [],
      "stateMutability": "nonpayable",
      "type": "function"
    },
    {
      "inputs": [
        {
          "internalType": "address",
          "name": "owner",
          "type": "address"
        }
      ],
      "name": "balanceOf",
      "outputs": [
        {
          "internalType": "uint256",
          "name": "",
          "type": "uint256"
        }
      ],
      "stateMutability": "view",
      "type": "function"
    },
    {
      "inputs": [
        {
          "internalType": "uint256",
          "name": "tokenId",
          "type": "uint256"
        }
      ],
      "name": "getApproved",
      "outputs": [
        {
          "internalType": "address",
          "name": "",
          "type": "address"
        }
      ],
      "stateMutability": "view",
      "type": "function"
    },
    {
      "inputs": [
        {
          "internalType": "uint256",
          "name": "nft",
          "type": "uint256"
        }
      ],
      "name": "getKeysAndValues",
      "outputs": [
        {
          "internalType": "string[]",
          "name": "k",
          "type": "string[]"
        },
        {
          "internalType": "uint256[]",
          "name": "v",
          "type": "uint256[]"
        }
      ],
      "stateMutability": "view",
      "type": "function"
    },
    {
      "inputs": [
        {
          "internalType": "address",
          "name": "owner",
          "type": "address"
        },
        {
          "internalType": "address",
          "name": "operator",
          "type": "address"
        }
      ],
      "name": "isApprovedForAll",
      "outputs": [
        {
          "internalType": "bool",
          "name": "",
          "type": "bool"
        }
      ],
      "stateMutability": "view",
      "type": "function"
    },
    {
      "inputs": [
        {
          "internalType": "address",
          "name": "recipient",
          "type": "address"
        }
      ],
      "name": "mint",
      "outputs": [
        {
          "internalType": "uint256",
          "name": "",
          "type": "uint256"
        }
      ],
      "stateMutability": "nonpayable",
      "type": "function"
    },
    {
      "inputs": [],
      "name": "name",
      "outputs": [
        {
          "internalType": "string",
          "name": "",
          "type": "string"
        }
      ],
      "stateMutability": "view",
      "type": "function"
    },
    {
      "inputs": [
        {
          "internalType": "uint256",
          "name": "tokenId",
          "type": "uint256"
        }
      ],
      "name": "ownerOf",
      "outputs": [
        {
          "internalType": "address",
          "name": "",
          "type": "address"
        }
      ],
      "stateMutability": "view",
      "type": "function"
    },
    {
      "inputs": [
        {
          "internalType": "address",
          "name": "from",
          "type": "address"
        },
        {
          "internalType": "address",
          "name": "to",
          "type": "address"
        },
        {
          "internalType": "uint256",
          "name": "tokenId",
          "type": "uint256"
        }
      ],
      "name": "safeTransferFrom",
      "outputs": [],
      "stateMutability": "nonpayable",
      "type": "function"
    },
    {
      "inputs": [
        {
          "internalType": "address",
          "name": "from",
          "type": "address"
        },
        {
          "internalType": "address",
          "name": "to",
          "type": "address"
        },
        {
          "internalType": "uint256",
          "name": "tokenId",
          "type": "uint256"
        },
        {
          "internalType": "bytes",
          "name": "data",
          "type": "bytes"
        }
      ],
      "name": "safeTransferFrom",
      "outputs": [],
      "stateMutability": "nonpayable",
      "type": "function"
    },
    {
      "inputs": [
        {
          "internalType": "address",
          "name": "operator",
          "type": "address"
        },
        {
          "internalType": "bool",
          "name": "approved",
          "type": "bool"
        }
      ],
      "name": "setApprovalForAll",
      "outputs": [],
      "stateMutability": "nonpayable",
      "type": "function"
    },
    {
      "inputs": [
        {
          "internalType": "bytes4",
          "name": "interfaceId",
          "type": "bytes4"
        }
      ],
      "name": "supportsInterface",
      "outputs": [
        {
          "internalType": "bool",
          "name": "",
          "type": "bool"
        }
      ],
      "stateMutability": "view",
      "type": "function"
    },
    {
      "inputs": [],
      "name": "symbol",
      "outputs": [
        {
          "internalType": "string",
          "name": "",
          "type": "string"
        }
      ],
      "stateMutability": "view",
      "type": "function"
    },
    {
      "inputs": [
        {
          "internalType": "uint256",
          "name": "tokenId",
          "type": "uint256"
        }
      ],
      "name": "tokenURI",
      "outputs": [
        {
          "internalType": "string",
          "name": "",
          "type": "string"
        }
      ],
      "stateMutability": "view",
      "type": "function"
    },
    {
      "inputs": [
        {
          "internalType": "address",
          "name": "from",
          "type": "address"
        },
        {
          "internalType": "address",
          "name": "to",
          "type": "address"
        },
        {
          "internalType": "uint256",
          "name": "tokenId",
          "type": "uint256"
        }
      ],
      "name": "transferFrom",
      "outputs": [],
      "stateMutability": "nonpayable",
      "type": "function"
    },
    {
      "inputs": [
        {
          "internalType": "uint256",
          "name": "nft",
          "type": "uint256"
        },
        {
          "internalType": "string[]",
          "name": "k",
          "type": "string[]"
        },
        {
          "internalType": "uint256[]",
          "name": "v",
          "type": "uint256[]"
        }
      ],
      "name": "updateMetadata",
      "outputs": [],
      "stateMutability": "nonpayable",
      "type": "function"
    }
  ],
  "bytecode": "0x60806040523480156200001157600080fd5b5060405162001aed38038062001aed833981016040819052620000349162000322565b83836000620000448382620004e3565b506001620000538282620004e3565b505082516200006b915060089060208501906200008c565b50805162000081906009906020840190620000e9565b5050505050620005af565b828054828255906000526020600020908101928215620000d7579160200282015b82811115620000d75782518290620000c69082620004e3565b5091602001919060010190620000ad565b50620000e592915062000135565b5090565b82805482825590600052602060002090810192821562000127579160200282015b82811115620001275782518255916020019190600101906200010a565b50620000e592915062000156565b80821115620000e55760006200014c82826200016d565b5060010162000135565b5b80821115620000e5576000815560010162000157565b5080546200017b9062000452565b6000825580601f106200018c575050565b601f016020900490600052602060002090810190620001ac919062000156565b50565b634e487b7160e01b600052604160045260246000fd5b604051601f8201601f191681016001600160401b0381118282101715620001f057620001f0620001af565b604052919050565b600082601f8301126200020a57600080fd5b81516001600160401b03811115620002265762000226620001af565b60206200023c601f8301601f19168201620001c5565b82815285828487010111156200025157600080fd5b60005b838110156200027157858101830151828201840152820162000254565b506000928101909101919091529392505050565b60006001600160401b03821115620002a157620002a1620001af565b5060051b60200190565b600082601f830112620002bd57600080fd5b81516020620002d6620002d08362000285565b620001c5565b8083825260208201915060208460051b870101935086841115620002f957600080fd5b602086015b84811015620003175780518352918301918301620002fe565b509695505050505050565b600080600080608085870312156200033957600080fd5b84516001600160401b03808211156200035157600080fd5b6200035f88838901620001f8565b95506020915081870151818111156200037757600080fd5b6200038589828a01620001f8565b9550506040870151818111156200039b57600080fd5b8701601f81018913620003ad57600080fd5b8051620003be620002d08262000285565b81815260059190911b8201840190848101908b831115620003de57600080fd5b8584015b838110156200041b57805186811115620003fc5760008081fd5b6200040c8e8983890101620001f8565b845250918601918601620003e2565b5060608b01519097509450505050808211156200043757600080fd5b506200044687828801620002ab565b91505092959194509250565b600181811c908216806200046757607f821691505b6020821081036200048857634e487b7160e01b600052602260045260246000fd5b50919050565b601f821115620004de576000816000526020600020601f850160051c81016020861015620004b95750805b601f850160051c820191505b81811015620004da57828155600101620004c5565b5050505b505050565b81516001600160401b03811115620004ff57620004ff620001af565b620005178162000510845462000452565b846200048e565b602080601f8311600181146200054f5760008415620005365750858301515b600019600386901b1c1916600185901b178555620004da565b600085815260208120601f198616915b8281101562000580578886015182559484019460019091019084016200055f565b50858210156200059f5787850151600019600388901b60f8161c191681555b5050505050600190811b01905550565b61152e80620005bf6000396000f3fe608060405234801561001057600080fd5b50600436106100e05760003560e01c80636a627842116100875780636a627842146101b157806370a08231146101d257806395d89b41146101e5578063a22cb465146101ed578063b578d8cd14610200578063b88d4fde14610213578063c87b56dd14610226578063e985e9c51461023957600080fd5b806301ffc9a7146100e557806306fdde031461010d578063081812fc14610122578063095ea7b31461014257806323b872dd1461015757806342842e0e1461016a57806350f805181461017d5780636352211e1461019e575b600080fd5b6100f86100f3366004610ef8565b61024c565b60405190151581526020015b60405180910390f35b61011561029e565b6040516101049190610f65565b610135610130366004610f78565b610330565b6040516101049190610f91565b610155610150366004610fc1565b610359565b005b610155610165366004610feb565b610368565b610155610178366004610feb565b6103fc565b61019061018b366004610f78565b61041c565b604051610104929190611027565b6101356101ac366004610f78565b6105ff565b6101c46101bf3660046110c2565b61060a565b604051908152602001610104565b6101c46101e03660046110c2565b6106b8565b610115610700565b6101556101fb3660046110dd565b61070f565b61015561020e366004611164565b61071a565b6101556102213660046111f3565b6107a3565b610115610234366004610f78565b6107ba565b6100f86102473660046112ce565b61082f565b60006001600160e01b031982166380ac58cd60e01b148061027d57506001600160e01b03198216635b5e139f60e01b145b8061029857506301ffc9a760e01b6001600160e01b03198316145b92915050565b6060600080546102ad90611301565b80601f01602080910402602001604051908101604052809291908181526020018280546102d990611301565b80156103265780601f106102fb57610100808354040283529160200191610326565b820191906000526020600020905b81548152906001019060200180831161030957829003601f168201915b5050505050905090565b600061033b8261085d565b506000828152600460205260409020546001600160a01b0316610298565b610364828233610896565b5050565b6001600160a01b03821661039b576000604051633250574960e11b81526004016103929190610f91565b60405180910390fd5b60006103a88383336108a3565b9050836001600160a01b0316816001600160a01b0316146103f6576040516364283d7b60e01b81526001600160a01b0380861660048301526024820184905282166044820152606401610392565b50505050565b610417838383604051806020016040528060008152506107a3565b505050565b60085460609081906001600160401b0381111561043b5761043b6111dd565b60405190808252806020026020018201604052801561046e57816020015b60608152602001906001900390816104595790505b506008549092506001600160401b0381111561048c5761048c6111dd565b6040519080825280602002602001820160405280156104b5578160200160208202803683370190505b50905060005b6008548110156105f957600881815481106104d8576104d861133b565b9060005260206000200180546104ed90611301565b80601f016020809104026020016040519081016040528092919081815260200182805461051990611301565b80156105665780601f1061053b57610100808354040283529160200191610566565b820191906000526020600020905b81548152906001019060200180831161054957829003601f168201915b505050505083828151811061057d5761057d61133b565b6020026020010181905250600a6000858152602001908152602001600020600882815481106105ae576105ae61133b565b906000526020600020016040516105c59190611351565b9081526020016040518091039020548282815181106105e6576105e661133b565b60209081029190910101526001016104bb565b50915091565b60006102988261085d565b600680546000918261061b836113f2565b919050555061062c8260065461099c565b60005b6008548110156106ae576009818154811061064c5761064c61133b565b9060005260206000200154600a600060065481526020019081526020016000206008838154811061067f5761067f61133b565b906000526020600020016040516106969190611351565b9081526040519081900360200190205560010161062f565b5050600654919050565b60006001600160a01b0382166106e45760006040516322718ad960e21b81526004016103929190610f91565b506001600160a01b031660009081526003602052604090205490565b6060600180546102ad90611301565b610364338383610a01565b60005b8381101561079b578282828181106107375761073761133b565b90506020020135600a60008881526020019081526020016000208686848181106107635761076361133b565b90506020028101906107759190611419565b60405161078392919061145f565b9081526040519081900360200190205560010161071d565b505050505050565b6107ae848484610368565b6103f684848484610a97565b60606107c58261085d565b5060006107dd60408051602081019091526000815290565b905060008151116107fd5760405180602001604052806000815250610828565b8061080784610bae565b60405160200161081892919061146f565b6040516020818303038152906040525b9392505050565b6001600160a01b03918216600090815260056020908152604080832093909416825291909152205460ff1690565b6000818152600260205260408120546001600160a01b03168061029857604051637e27328960e01b815260048101849052602401610392565b6104178383836001610c40565b6000828152600260205260408120546001600160a01b03908116908316156108d0576108d0818486610d3d565b6001600160a01b0381161561090e576108ed600085600080610c40565b6001600160a01b038116600090815260036020526040902080546000190190555b6001600160a01b0385161561093d576001600160a01b0385166000908152600360205260409020805460010190555b60008481526002602052604080822080546001600160a01b0319166001600160a01b0389811691821790925591518793918516917fddf252ad1be2c89b69c2b068fc378daa952ba7f163c4a11628f55a4df523b3ef91a4949350505050565b6001600160a01b0382166109c6576000604051633250574960e11b81526004016103929190610f91565b60006109d4838360006108a3565b90506001600160a01b038116156104175760006040516339e3563760e11b81526004016103929190610f91565b6001600160a01b038216610a2a5781604051630b61174360e31b81526004016103929190610f91565b6001600160a01b03838116600081815260056020908152604080832094871680845294825291829020805460ff191686151590811790915591519182527f17307eab39ab6107e8899845ad3d59bd9653f200f220920489ca2b5937696c31910160405180910390a3505050565b6001600160a01b0383163b156103f657604051630a85bd0160e11b81526001600160a01b0384169063150b7a0290610ad990339088908790879060040161149e565b6020604051808303816000875af1925050508015610b14575060408051601f3d908101601f19168201909252610b11918101906114db565b60015b610b74573d808015610b42576040519150601f19603f3d011682016040523d82523d6000602084013e610b47565b606091505b508051600003610b6c5783604051633250574960e11b81526004016103929190610f91565b805181602001fd5b6001600160e01b03198116630a85bd0160e11b14610ba75783604051633250574960e11b81526004016103929190610f91565b5050505050565b60606000610bbb83610da1565b60010190506000816001600160401b03811115610bda57610bda6111dd565b6040519080825280601f01601f191660200182016040528015610c04576020820181803683370190505b5090508181016020015b600019016f181899199a1a9b1b9c1cb0b131b232b360811b600a86061a8153600a8504945084610c0e57509392505050565b8080610c5457506001600160a01b03821615155b15610d0d576000610c648461085d565b90506001600160a01b03831615801590610c905750826001600160a01b0316816001600160a01b031614155b8015610ca35750610ca1818461082f565b155b15610cc3578260405163a9fbf51f60e01b81526004016103929190610f91565b8115610d0b5783856001600160a01b0316826001600160a01b03167f8c5be1e5ebec7d5bd14f71427d1e84f3dd0314c0f7b2291e5b200ac8c7c3b92560405160405180910390a45b505b5050600090815260046020526040902080546001600160a01b0319166001600160a01b0392909216919091179055565b610d48838383610e79565b610417576001600160a01b038316610d7657604051637e27328960e01b815260048101829052602401610392565b60405163177e802f60e01b81526001600160a01b038316600482015260248101829052604401610392565b60008072184f03e93ff9f4daa797ed6e38ed64bf6a1f0160401b8310610de05772184f03e93ff9f4daa797ed6e38ed64bf6a1f0160401b830492506040015b6d04ee2d6d415b85acef81000000008310610e0c576d04ee2d6d415b85acef8100000000830492506020015b662386f26fc100008310610e2a57662386f26fc10000830492506010015b6305f5e1008310610e42576305f5e100830492506008015b6127108310610e5657612710830492506004015b60648310610e68576064830492506002015b600a83106102985760010192915050565b60006001600160a01b03831615801590610ed75750826001600160a01b0316846001600160a01b03161480610eb35750610eb3848461082f565b80610ed757506000828152600460205260409020546001600160a01b038481169116145b949350505050565b6001600160e01b031981168114610ef557600080fd5b50565b600060208284031215610f0a57600080fd5b813561082881610edf565b60005b83811015610f30578181015183820152602001610f18565b50506000910152565b60008151808452610f51816020860160208601610f15565b601f01601f19169290920160200192915050565b6020815260006108286020830184610f39565b600060208284031215610f8a57600080fd5b5035919050565b6001600160a01b0391909116815260200190565b80356001600160a01b0381168114610fbc57600080fd5b919050565b60008060408385031215610fd457600080fd5b610fdd83610fa5565b946020939093013593505050565b60008060006060848603121561100057600080fd5b61100984610fa5565b925061101760208501610fa5565b9150604084013590509250925092565b6000604082016040835280855180835260608501915060608160051b8601019250602080880160005b8381101561107e57605f1988870301855261106c868351610f39565b95509382019390820190600101611050565b50508584038187015286518085528782019482019350915060005b828110156110b557845184529381019392810192600101611099565b5091979650505050505050565b6000602082840312156110d457600080fd5b61082882610fa5565b600080604083850312156110f057600080fd5b6110f983610fa5565b91506020830135801515811461110e57600080fd5b809150509250929050565b60008083601f84011261112b57600080fd5b5081356001600160401b0381111561114257600080fd5b6020830191508360208260051b850101111561115d57600080fd5b9250929050565b60008060008060006060868803121561117c57600080fd5b8535945060208601356001600160401b038082111561119a57600080fd5b6111a689838a01611119565b909650945060408801359150808211156111bf57600080fd5b506111cc88828901611119565b969995985093965092949392505050565b634e487b7160e01b600052604160045260246000fd5b6000806000806080858703121561120957600080fd5b61121285610fa5565b935061122060208601610fa5565b92506040850135915060608501356001600160401b038082111561124357600080fd5b818701915087601f83011261125757600080fd5b813581811115611269576112696111dd565b604051601f8201601f19908116603f01168101908382118183101715611291576112916111dd565b816040528281528a60208487010111156112aa57600080fd5b82602086016020830137600060208483010152809550505050505092959194509250565b600080604083850312156112e157600080fd5b6112ea83610fa5565b91506112f860208401610fa5565b90509250929050565b600181811c9082168061131557607f821691505b60208210810361133557634e487b7160e01b600052602260045260246000fd5b50919050565b634e487b7160e01b600052603260045260246000fd5b60008083548160018260011c9150600183168061136f57607f831692505b6020808410820361138e57634e487b7160e01b86526022600452602486fd5b8180156113a257600181146113b7576113e4565b60ff19861689528415158502890196506113e4565b60008a81526020902060005b868110156113dc5781548b8201529085019083016113c3565b505084890196505b509498975050505050505050565b60006001820161141257634e487b7160e01b600052601160045260246000fd5b5060010190565b6000808335601e1984360301811261143057600080fd5b8301803591506001600160401b0382111561144a57600080fd5b60200191503681900382131561115d57600080fd5b8183823760009101908152919050565b60008351611481818460208801610f15565b835190830190611495818360208801610f15565b01949350505050565b6001600160a01b03858116825284166020820152604081018390526080606082018190526000906114d190830184610f39565b9695505050505050565b6000602082840312156114ed57600080fd5b815161082881610edf56fea2646970667358221220c3794634cd5ac38f0a58244524178ef1e71ad71c0a32cbc7a1527b7f21f0a8bd64736f6c63430008180033",
  "linkReferences": {},
  "deployedLinkReferences": {}
}