{
  "_format": "hh-sol-artifact-1",
  "contractName": "User",
  "sourceName": "contracts/User.sol",
  "abi": [
    {
      "inputs": [
        {
          "internalType": "uint256",
          "name": "game",
          "type": "uint256"
        },
        {
          "internalType": "address",
          "name": "user",
          "type": "address"
        }
      ],
      "name": "getUserData",
      "outputs": [
        {
          "internalType": "string[]",
          "name": "userKeys",
          "type": "string[]"
        },
        {
          "internalType": "uint256[]",
          "name": "values",
          "type": "uint256[]"
        }
      ],
      "stateMutability": "view",
      "type": "function"
    },
    {
      "inputs": [
        {
          "internalType": "uint256",
          "name": "game",
          "type": "uint256"
        },
        {
          "internalType": "string[]",
          "name": "userKeys",
          "type": "string[]"
        }
      ],
      "name": "initializeUserData",
      "outputs": [],
      "stateMutability": "nonpayable",
      "type": "function"
    },
    {
      "inputs": [
        {
          "internalType": "uint256",
          "name": "game",
          "type": "uint256"
        },
        {
          "internalType": "address",
          "name": "user",
          "type": "address"
        },
        {
          "internalType": "string[]",
          "name": "userKeys",
          "type": "string[]"
        },
        {
          "internalType": "uint256[]",
          "name": "values",
          "type": "uint256[]"
        }
      ],
      "name": "updateUserData",
      "outputs": [],
      "stateMutability": "nonpayable",
      "type": "function"
    }
  ],
  "bytecode": "0x608060405234801561001057600080fd5b506109f0806100206000396000f3fe608060405234801561001057600080fd5b50600436106100415760003560e01c806316480f6714610046578063327342571461005b57806386a2138014610085575b600080fd5b61005961005436600461051f565b610098565b005b61006e6100693660046105a9565b61013f565b60405161007c929190610635565b60405180910390f35b6100596100933660046106c3565b6102ff565b60005b83811015610136578282828181106100b5576100b561070f565b60008a81526020818152604080832073ffffffffffffffffffffffffffffffffffffffff8d1684528252909120910292909201359190508686848181106100fe576100fe61070f565b90506020028101906101109190610725565b60405161011e92919061076c565b9081526040519081900360200190205560010161009b565b50505050505050565b60008281526001602090815260408083208054825181850281018501909352808352606094859484015b828210156102155783829060005260206000200180546101889061077c565b80601f01602080910402602001604051908101604052809291908181526020018280546101b49061077c565b80156102015780601f106101d657610100808354040283529160200191610201565b820191906000526020600020905b8154815290600101906020018083116101e457829003601f168201915b505050505081526020019060010190610169565b505050509150815167ffffffffffffffff811115610235576102356107b6565b60405190808252806020026020018201604052801561025e578160200160208202803683370190505b50905060005b82518110156102f75760008581526020818152604080832073ffffffffffffffffffffffffffffffffffffffff88168452909152902083518490839081106102ae576102ae61070f565b60200260200101516040516102c391906107cc565b9081526020016040518091039020548282815181106102e4576102e461070f565b6020908102919091010152600101610264565b509250929050565b8067ffffffffffffffff811115610318576103186107b6565b60405190808252806020026020018201604052801561034b57816020015b60608152602001906001900390816103365790505b506000848152600160209081526040909120825161036f93919291909101906103e5565b5060005b818110156103df5782828281811061038d5761038d61070f565b905060200281019061039f9190610725565b60008681526001602052604090208054849081106103bf576103bf61070f565b9060005260206000200191826103d6929190610839565b50600101610373565b50505050565b82805482825590600052602060002090810192821561042b579160200282015b8281111561042b578251829061041b90826108fa565b5091602001919060010190610405565b5061043792915061043b565b5090565b8082111561043757600061044f8282610458565b5060010161043b565b5080546104649061077c565b6000825580601f10610474575050565b601f0160209004906000526020600020908101906104929190610495565b50565b5b808211156104375760008155600101610496565b803573ffffffffffffffffffffffffffffffffffffffff811681146104ce57600080fd5b919050565b60008083601f8401126104e557600080fd5b50813567ffffffffffffffff8111156104fd57600080fd5b6020830191508360208260051b850101111561051857600080fd5b9250929050565b6000806000806000806080878903121561053857600080fd5b86359550610548602088016104aa565b9450604087013567ffffffffffffffff8082111561056557600080fd5b6105718a838b016104d3565b9096509450606089013591508082111561058a57600080fd5b5061059789828a016104d3565b979a9699509497509295939492505050565b600080604083850312156105bc57600080fd5b823591506105cc602084016104aa565b90509250929050565b60005b838110156105f05781810151838201526020016105d8565b50506000910152565b60008151808452602080850194506020840160005b8381101561062a5781518752958201959082019060010161060e565b509495945050505050565b6000604082016040835280855180835260608501915060608160051b8601019250602080880160005b838110156106a457878603605f190185528151805180885261068581868a018785016105d5565b601f01601f19169690960183019550938201939082019060010161065e565b5050858403818701525050506106ba81856105f9565b95945050505050565b6000806000604084860312156106d857600080fd5b83359250602084013567ffffffffffffffff8111156106f657600080fd5b610702868287016104d3565b9497909650939450505050565b634e487b7160e01b600052603260045260246000fd5b6000808335601e1984360301811261073c57600080fd5b83018035915067ffffffffffffffff82111561075757600080fd5b60200191503681900382131561051857600080fd5b8183823760009101908152919050565b600181811c9082168061079057607f821691505b6020821081036107b057634e487b7160e01b600052602260045260246000fd5b50919050565b634e487b7160e01b600052604160045260246000fd5b600082516107de8184602087016105d5565b9190910192915050565b601f821115610834576000816000526020600020601f850160051c810160208610156108115750805b601f850160051c820191505b818110156108305782815560010161081d565b5050505b505050565b67ffffffffffffffff831115610851576108516107b6565b6108658361085f835461077c565b836107e8565b6000601f84116001811461089957600085156108815750838201355b600019600387901b1c1916600186901b1783556108f3565b600083815260209020601f19861690835b828110156108ca57868501358255602094850194600190920191016108aa565b50868210156108e75760001960f88860031b161c19848701351681555b505060018560011b0183555b5050505050565b815167ffffffffffffffff811115610914576109146107b6565b61092881610922845461077c565b846107e8565b602080601f83116001811461095d57600084156109455750858301515b600019600386901b1c1916600185901b178555610830565b600085815260208120601f198616915b8281101561098c5788860151825594840194600190910190840161096d565b50858210156109aa5787850151600019600388901b60f8161c191681555b5050505050600190811b0190555056fea2646970667358221220502e3952f0d58ee925cbd93dfdbd912803deaca568bc4f8eb1beaeb87b93929164736f6c63430008180033",
  "linkReferences": {},
  "deployedLinkReferences": {}
}