{
  "_format": "hh-sol-artifact-1",
  "contractName": "Shop",
  "sourceName": "contracts/Shop.sol",
  "abi": [
    {
      "inputs": [],
      "stateMutability": "nonpayable",
      "type": "constructor"
    },
    {
      "inputs": [
        {
          "internalType": "address",
          "name": "owner",
          "type": "address"
        }
      ],
      "name": "OwnableInvalidOwner",
      "type": "error"
    },
    {
      "inputs": [
        {
          "internalType": "address",
          "name": "account",
          "type": "address"
        }
      ],
      "name": "OwnableUnauthorizedAccount",
      "type": "error"
    },
    {
      "anonymous": false,
      "inputs": [
        {
          "indexed": true,
          "internalType": "address",
          "name": "previousOwner",
          "type": "address"
        },
        {
          "indexed": true,
          "internalType": "address",
          "name": "newOwner",
          "type": "address"
        }
      ],
      "name": "OwnershipTransferred",
      "type": "event"
    },
    {
      "inputs": [
        {
          "internalType": "uint256",
          "name": "game",
          "type": "uint256"
        },
        {
          "internalType": "uint256",
          "name": "listingId",
          "type": "uint256"
        }
      ],
      "name": "buyItem",
      "outputs": [],
      "stateMutability": "nonpayable",
      "type": "function"
    },
    {
      "inputs": [
        {
          "internalType": "uint256",
          "name": "game",
          "type": "uint256"
        },
        {
          "internalType": "bool",
          "name": "userListable",
          "type": "bool"
        },
        {
          "internalType": "address",
          "name": "owner",
          "type": "address"
        }
      ],
      "name": "initializeShop",
      "outputs": [],
      "stateMutability": "nonpayable",
      "type": "function"
    },
    {
      "inputs": [
        {
          "internalType": "uint256",
          "name": "game",
          "type": "uint256"
        },
        {
          "internalType": "address",
          "name": "item",
          "type": "address"
        },
        {
          "internalType": "bool",
          "name": "isNFT",
          "type": "bool"
        },
        {
          "internalType": "uint256",
          "name": "nftId",
          "type": "uint256"
        },
        {
          "internalType": "uint256",
          "name": "tokenAmount",
          "type": "uint256"
        },
        {
          "internalType": "address",
          "name": "chargeToken",
          "type": "address"
        },
        {
          "internalType": "uint256",
          "name": "price",
          "type": "uint256"
        }
      ],
      "name": "listItem",
      "outputs": [],
      "stateMutability": "nonpayable",
      "type": "function"
    },
    {
      "inputs": [],
      "name": "owner",
      "outputs": [
        {
          "internalType": "address",
          "name": "",
          "type": "address"
        }
      ],
      "stateMutability": "view",
      "type": "function"
    },
    {
      "inputs": [],
      "name": "renounceOwnership",
      "outputs": [],
      "stateMutability": "nonpayable",
      "type": "function"
    },
    {
      "inputs": [
        {
          "internalType": "address",
          "name": "newOwner",
          "type": "address"
        }
      ],
      "name": "transferOwnership",
      "outputs": [],
      "stateMutability": "nonpayable",
      "type": "function"
    },
    {
      "inputs": [
        {
          "internalType": "uint256",
          "name": "game",
          "type": "uint256"
        }
      ],
      "name": "viewShop",
      "outputs": [
        {
          "components": [
            {
              "components": [
                {
                  "internalType": "address",
                  "name": "item",
                  "type": "address"
                },
                {
                  "internalType": "bool",
                  "name": "isNFT",
                  "type": "bool"
                },
                {
                  "internalType": "uint256",
                  "name": "nftId",
                  "type": "uint256"
                },
                {
                  "internalType": "uint256",
                  "name": "tokenAmount",
                  "type": "uint256"
                },
                {
                  "internalType": "address",
                  "name": "chargeToken",
                  "type": "address"
                },
                {
                  "internalType": "uint256",
                  "name": "price",
                  "type": "uint256"
                },
                {
                  "internalType": "uint256",
                  "name": "listingId",
                  "type": "uint256"
                }
              ],
              "internalType": "struct Shop.Listing[]",
              "name": "listings",
              "type": "tuple[]"
            },
            {
              "internalType": "bool",
              "name": "userListable",
              "type": "bool"
            },
            {
              "internalType": "uint256",
              "name": "listingNum",
              "type": "uint256"
            },
            {
              "internalType": "address",
              "name": "owner",
              "type": "address"
            }
          ],
          "internalType": "struct Shop.ShopInternal",
          "name": "s",
          "type": "tuple"
        }
      ],
      "stateMutability": "view",
      "type": "function"
    }
  ],
  "bytecode": "0x608060405234801561001057600080fd5b50338061003757604051631e4fbdf760e01b81526000600482015260240160405180910390fd5b61004081610046565b50610096565b600080546001600160a01b038381166001600160a01b0319831681178455604051919092169283917f8be0079c531659141344cd1fd0a4f28419497f9722a3daafe3b4186f6b6457e09190a35050565b610cac806100a56000396000f3fe608060405234801561001057600080fd5b506004361061006d5760003560e01c80631d167f5a146100725780634c5e4e3d146100cf578063715018a6146100e25780638da5cb5b146100ea5780639979c0091461010c5780639ed1cb701461011f578063f2fde38b1461013f575b600080fd5b6100cd6100803660046109c4565b60009283526001602081905260408420908101805460ff191693151593909317909255600282019290925560030180546001600160a01b0319166001600160a01b03909216919091179055565b005b6100cd6100dd366004610a02565b610152565b6100cd610354565b6000546001600160a01b03166040516101039190610a6e565b60405180910390f35b6100cd61011a366004610a82565b610368565b61013261012d366004610aa4565b6107c4565b6040516101039190610abd565b6100cd61014d366004610b8c565b6108df565b84156101c2576040516323b872dd60e01b815286906001600160a01b038216906323b872dd9061018a90339030908a90600401610bae565b600060405180830381600087803b1580156101a457600080fd5b505af11580156101b8573d6000803e3d6000fd5b5050505050610264565b6040516323b872dd60e01b815286906001600160a01b038216906323b872dd906101f490339030908990600401610bae565b6020604051808303816000875af1158015610213573d6000803e3d6000fd5b505050506040513d601f19601f820116820180604052508101906102379190610bd2565b6102625760405162461bcd60e51b815260206004820152600060248201526044015b60405180910390fd5b505b6000878152600160208181526040808420815160e0810183526001600160a01b038c811682528b15158286019081529382018b8152606083018b81528a83166080850190815260a085018b81526002808801805460c089019081528954808e018b558a8f529b8e2098516006909c0290980180549a519b88166001600160a81b0319909b169a909a17600160a01b9b15159b909b029a909a178955935199880199909955905191860191909155516003850180546001600160a01b031916919092161790559351600483015592516005909101558054919261034583610c05565b91905055505050505050505050565b61035c61091d565b610366600061094a565b565b6000828152600160205260408120805490915b8254811015610667578383600001828154811061039a5761039a610c1e565b9060005260206000209060060201600501540361065f5780915060008360000182815481106103cb576103cb610c1e565b60009182526020909120600360069092020101546001600160a01b03169050806323b872dd336104036000546001600160a01b031690565b87600001868154811061041857610418610c1e565b9060005260206000209060060201600401546040518463ffffffff1660e01b815260040161044893929190610bae565b6020604051808303816000875af1158015610467573d6000803e3d6000fd5b505050506040513d601f19601f8201168201806040525081019061048b9190610bd2565b61049457600080fd5b8360000182815481106104a9576104a9610c1e565b6000918252602090912060069091020154600160a01b900460ff16156105865760008460000183815481106104e0576104e0610c1e565b600091825260209091206006909102015485546001600160a01b03909116915081906323b872dd903090339089908890811061051e5761051e610c1e565b9060005260206000209060060201600101546040518463ffffffff1660e01b815260040161054e93929190610bae565b600060405180830381600087803b15801561056857600080fd5b505af115801561057c573d6000803e3d6000fd5b5050505050610659565b600084600001838154811061059d5761059d610c1e565b600091825260209091206006909102015485546001600160a01b03909116915081906323b872dd90309033908990889081106105db576105db610c1e565b9060005260206000209060060201600201546040518463ffffffff1660e01b815260040161060b93929190610bae565b6020604051808303816000875af115801561062a573d6000803e3d6000fd5b505050506040513d601f19601f8201168201806040525081019061064e9190610bd2565b61065757600080fd5b505b50610667565b60010161037b565b50805b825461067890600190610c34565b82101561075c578261068b826001610c4d565b8154811061069b5761069b610c1e565b90600052602060002090600602018360000182815481106106be576106be610c1e565b60009182526020909120825460069092020180546001600160a01b03198082166001600160a01b039485169081178455855460ff600160a01b91829004161515026001600160a81b03199093161791909117825560018085015481840155600280860154908401556003808601549084018054909316941693909317905560048084015490820155600592830154920191909155919091019061066a565b50815482908061076e5761076e610c60565b60008281526020812060066000199093019283020180546001600160a81b031916815560018101829055600281018290556003810180546001600160a01b03191690556004810182905560050155905550505050565b60408051608081018252606080825260006020830181905292820183905281019190915260008281526001602090815260408083208151815460a09481028201850190935260808101838152909491938593919285929185015b828210156108a45760008481526020908190206040805160e0810182526006860290920180546001600160a01b038082168552600160a01b90910460ff1615158486015260018083015493850193909352600282015460608501526003820154166080840152600481015460a08401526005015460c0830152908352909201910161081e565b50505090825250600182015460ff1615156020820152600282015460408201526003909101546001600160a01b031660609091015292915050565b6108e761091d565b6001600160a01b038116610911576000604051631e4fbdf760e01b81526004016102599190610a6e565b61091a8161094a565b50565b6000546001600160a01b03163314610366573360405163118cdaa760e01b81526004016102599190610a6e565b600080546001600160a01b038381166001600160a01b0319831681178455604051919092169283917f8be0079c531659141344cd1fd0a4f28419497f9722a3daafe3b4186f6b6457e09190a35050565b801515811461091a57600080fd5b80356001600160a01b03811681146109bf57600080fd5b919050565b6000806000606084860312156109d957600080fd5b8335925060208401356109eb8161099a565b91506109f9604085016109a8565b90509250925092565b600080600080600080600060e0888a031215610a1d57600080fd5b87359650610a2d602089016109a8565b95506040880135610a3d8161099a565b94506060880135935060808801359250610a5960a089016109a8565b915060c0880135905092959891949750929550565b6001600160a01b0391909116815260200190565b60008060408385031215610a9557600080fd5b50508035926020909101359150565b600060208284031215610ab657600080fd5b5035919050565b6000602080835260a080840185516080808588015282825180855260c0945060c089019150868401935060005b81811015610b4b57845180516001600160a01b0390811685528982015115158a86015260408083015190860152606080830151908601528582015116858501528781015188850152860151868401529387019360e090920191600101610aea565b5050948801518015156040890152946040890151606089015260608901519550610b8060808901876001600160a01b03169052565b98975050505050505050565b600060208284031215610b9e57600080fd5b610ba7826109a8565b9392505050565b6001600160a01b039384168152919092166020820152604081019190915260600190565b600060208284031215610be457600080fd5b8151610ba78161099a565b634e487b7160e01b600052601160045260246000fd5b600060018201610c1757610c17610bef565b5060010190565b634e487b7160e01b600052603260045260246000fd5b81810381811115610c4757610c47610bef565b92915050565b80820180821115610c4757610c47610bef565b634e487b7160e01b600052603160045260246000fdfea264697066735822122081317761a5e5d0ff8813662ae6f679b1ca9f428ccc5e5fb4911e8336776f624164736f6c63430008180033",
  "linkReferences": {},
  "deployedLinkReferences": {}
}