{
  "_format": "hh-sol-artifact-1",
  "contractName": "GameShop",
  "sourceName": "contracts/GameShop.sol",
  "abi": [
    {
      "inputs": [
        {
          "internalType": "address",
          "name": "_gameContract",
          "type": "address"
        }
      ],
      "stateMutability": "nonpayable",
      "type": "constructor"
    },
    {
      "inputs": [
        {
          "internalType": "address",
          "name": "owner",
          "type": "address"
        }
      ],
      "name": "OwnableInvalidOwner",
      "type": "error"
    },
    {
      "inputs": [
        {
          "internalType": "address",
          "name": "account",
          "type": "address"
        }
      ],
      "name": "OwnableUnauthorizedAccount",
      "type": "error"
    },
    {
      "anonymous": false,
      "inputs": [
        {
          "indexed": true,
          "internalType": "address",
          "name": "previousOwner",
          "type": "address"
        },
        {
          "indexed": true,
          "internalType": "address",
          "name": "newOwner",
          "type": "address"
        }
      ],
      "name": "OwnershipTransferred",
      "type": "event"
    },
    {
      "inputs": [
        {
          "internalType": "uint256",
          "name": "listingId",
          "type": "uint256"
        }
      ],
      "name": "buy",
      "outputs": [],
      "stateMutability": "nonpayable",
      "type": "function"
    },
    {
      "inputs": [],
      "name": "count",
      "outputs": [
        {
          "internalType": "uint256",
          "name": "",
          "type": "uint256"
        }
      ],
      "stateMutability": "view",
      "type": "function"
    },
    {
      "inputs": [],
      "name": "gameContract",
      "outputs": [
        {
          "internalType": "address",
          "name": "",
          "type": "address"
        }
      ],
      "stateMutability": "view",
      "type": "function"
    },
    {
      "inputs": [
        {
          "internalType": "address",
          "name": "token",
          "type": "address"
        }
      ],
      "name": "getGameForToken",
      "outputs": [
        {
          "internalType": "uint256",
          "name": "g",
          "type": "uint256"
        }
      ],
      "stateMutability": "view",
      "type": "function"
    },
    {
      "inputs": [
        {
          "internalType": "uint256",
          "name": "game",
          "type": "uint256"
        }
      ],
      "name": "getTokenForGame",
      "outputs": [
        {
          "internalType": "address",
          "name": "a",
          "type": "address"
        }
      ],
      "stateMutability": "view",
      "type": "function"
    },
    {
      "inputs": [
        {
          "internalType": "bool",
          "name": "isToken",
          "type": "bool"
        },
        {
          "internalType": "uint256",
          "name": "amount",
          "type": "uint256"
        },
        {
          "internalType": "uint256",
          "name": "gameId",
          "type": "uint256"
        },
        {
          "internalType": "uint256",
          "name": "price",
          "type": "uint256"
        },
        {
          "internalType": "address",
          "name": "sellToken",
          "type": "address"
        }
      ],
      "name": "list",
      "outputs": [],
      "stateMutability": "nonpayable",
      "type": "function"
    },
    {
      "inputs": [
        {
          "internalType": "uint256",
          "name": "",
          "type": "uint256"
        }
      ],
      "name": "listings",
      "outputs": [
        {
          "internalType": "uint256",
          "name": "id",
          "type": "uint256"
        },
        {
          "internalType": "bool",
          "name": "isToken",
          "type": "bool"
        },
        {
          "internalType": "uint256",
          "name": "amount",
          "type": "uint256"
        },
        {
          "internalType": "uint256",
          "name": "gameId",
          "type": "uint256"
        },
        {
          "internalType": "uint256",
          "name": "price",
          "type": "uint256"
        },
        {
          "internalType": "address",
          "name": "tokenAddress",
          "type": "address"
        },
        {
          "internalType": "address",
          "name": "sellToken",
          "type": "address"
        },
        {
          "internalType": "address",
          "name": "seller",
          "type": "address"
        }
      ],
      "stateMutability": "view",
      "type": "function"
    },
    {
      "inputs": [],
      "name": "owner",
      "outputs": [
        {
          "internalType": "address",
          "name": "",
          "type": "address"
        }
      ],
      "stateMutability": "view",
      "type": "function"
    },
    {
      "inputs": [
        {
          "internalType": "uint256",
          "name": "game",
          "type": "uint256"
        }
      ],
      "name": "redeem",
      "outputs": [],
      "stateMutability": "nonpayable",
      "type": "function"
    },
    {
      "inputs": [],
      "name": "renounceOwnership",
      "outputs": [],
      "stateMutability": "nonpayable",
      "type": "function"
    },
    {
      "inputs": [
        {
          "internalType": "uint256",
          "name": "game",
          "type": "uint256"
        },
        {
          "internalType": "uint256",
          "name": "supply",
          "type": "uint256"
        },
        {
          "internalType": "string",
          "name": "name",
          "type": "string"
        },
        {
          "internalType": "string",
          "name": "symbol",
          "type": "string"
        }
      ],
      "name": "split",
      "outputs": [],
      "stateMutability": "nonpayable",
      "type": "function"
    },
    {
      "inputs": [
        {
          "internalType": "address",
          "name": "newOwner",
          "type": "address"
        }
      ],
      "name": "transferOwnership",
      "outputs": [],
      "stateMutability": "nonpayable",
      "type": "function"
    },
    {
      "inputs": [],
      "name": "viewActiveGameTokens",
      "outputs": [
        {
          "internalType": "address[]",
          "name": "t",
          "type": "address[]"
        }
      ],
      "stateMutability": "view",
      "type": "function"
    }
  ],
  "bytecode": "0x608060405234801561001057600080fd5b5060405161227c38038061227c83398101604081905261002f916100d9565b338061005557604051631e4fbdf760e01b81526000600482015260240160405180910390fd5b61005e81610089565b50600380546001600160a01b0319166001600160a01b03929092169190911790556000600655610109565b600080546001600160a01b038381166001600160a01b0319831681178455604051919092169283917f8be0079c531659141344cd1fd0a4f28419497f9722a3daafe3b4186f6b6457e09190a35050565b6000602082840312156100eb57600080fd5b81516001600160a01b038116811461010257600080fd5b9392505050565b612164806101186000396000f3fe60806040523480156200001157600080fd5b5060043610620000f15760003560e01c8063beccc9481162000097578063d96a094a116200006e578063d96a094a14620001f8578063db006a75146200020f578063de74e57b1462000226578063f2fde38b146200028857600080fd5b8063beccc948146200019f578063c9bf9a7e14620001b8578063d3f3300914620001e457600080fd5b8063715018a611620000cc578063715018a614620001435780638da5cb5b146200014d578063aec49671146200017357600080fd5b806306661abd14620000f65780631d962223146200011357806368c2ac10146200012c575b600080fd5b6200010060065481565b6040519081526020015b60405180910390f35b6200012a620001243660046200109a565b6200029f565b005b6200012a6200013d36600462001150565b620003d1565b6200012a620006d6565b6000546001600160a01b03165b6040516001600160a01b0390911681526020016200010a565b6200010062000184366004620011a7565b6001600160a01b031660009081526002602052604090205490565b620001a9620006ee565b6040516200010a9190620011cc565b6200015a620001c93660046200121b565b6000908152600160205260409020546001600160a01b031690565b6003546200015a906001600160a01b031681565b6200012a620002093660046200121b565b62000752565b6200012a620002203660046200121b565b62000c93565b6200023d620002373660046200121b565b62000edd565b60408051988952961515602089015295870194909452606086019290925260808501526001600160a01b0390811660a085015290811660c08401521660e0820152610100016200010a565b6200012a62000299366004620011a7565b62000f47565b6003546040516323b872dd60e01b8152336004820152306024820152604481018890526001600160a01b039091169081906323b872dd90606401600060405180830381600087803b158015620002f457600080fd5b505af115801562000309573d6000803e3d6000fd5b505050506000868686868633604051620003239062001040565b62000334969594939291906200125e565b604051809103906000f08015801562000351573d6000803e3d6000fd5b50600089815260016020818152604080842080546001600160a01b039096166001600160a01b03199687168117909155808552600290925283209b909b556005805491820181559091527f036b6384b5eca791c62761152d0c79bb0604c104a5fb6f4eb0703f3154bb3db001805490911690981790975550505050505050565b60008515620004725750600083815260016020526040908190205490516323b872dd60e01b8152336004820152306024820152604481018490526001600160a01b0390911690819081906323b872dd906064016020604051808303816000875af115801562000444573d6000803e3d6000fd5b505050506040513d601f19601f820116820180604052508101906200046a9190620012be565b5050620004e2565b6003546040516323b872dd60e01b8152336004820152306024820152604481018690526001600160a01b039091169081906323b872dd90606401600060405180830381600087803b158015620004c757600080fd5b505af1158015620004dc573d6000803e3d6000fd5b50505050505b60408051610100810182526006805482528815156020830190815292820188815260608301888152608084018881526001600160a01b0387811660a0870190815289821660c088019081523360e089019081526004805460018101825560009182528a517f8a35acfbc15ff81a39ae7d344fd709f28e8600b4aa8c65c6b64bfe7fe36bd19b6008909202918201559a517f8a35acfbc15ff81a39ae7d344fd709f28e8600b4aa8c65c6b64bfe7fe36bd19c8c01805460ff191691151591909117905596517f8a35acfbc15ff81a39ae7d344fd709f28e8600b4aa8c65c6b64bfe7fe36bd19d8b015594517f8a35acfbc15ff81a39ae7d344fd709f28e8600b4aa8c65c6b64bfe7fe36bd19e8a015592517f8a35acfbc15ff81a39ae7d344fd709f28e8600b4aa8c65c6b64bfe7fe36bd19f890155517f8a35acfbc15ff81a39ae7d344fd709f28e8600b4aa8c65c6b64bfe7fe36bd1a0880180546001600160a01b031990811692841692909217905591517f8a35acfbc15ff81a39ae7d344fd709f28e8600b4aa8c65c6b64bfe7fe36bd1a188018054841691831691909117905591517f8a35acfbc15ff81a39ae7d344fd709f28e8600b4aa8c65c6b64bfe7fe36bd1a29096018054909116959091169490941790935580549192620006c883620012f4565b919050555050505050505050565b620006e062000fa8565b620006ec600062000ff0565b565b606060058054806020026020016040519081016040528092919081815260200182805480156200074857602002820191906000526020600020905b81546001600160a01b0316815260019091019060200180831162000729575b5050505050905090565b60045460005b60045481101562000aed5782600482815481106200077a576200077a62001310565b9060005260206000209060080201600001540362000ae457809150600060048281548110620007ad57620007ad62001310565b906000526020600020906008020160060160009054906101000a90046001600160a01b03169050806001600160a01b03166323b872dd3360048581548110620007fa57620007fa62001310565b906000526020600020906008020160070160009054906101000a90046001600160a01b03166004868154811062000835576200083562001310565b9060005260206000209060080201600401546040518463ffffffff1660e01b815260040162000885939291906001600160a01b039384168152919092166020820152604081019190915260600190565b6020604051808303816000875af1158015620008a5573d6000803e3d6000fd5b505050506040513d601f19601f82011682018060405250810190620008cb9190620012be565b5060048281548110620008e257620008e262001310565b600091825260209091206001600890920201015460ff161562000a145760006004838154811062000917576200091762001310565b906000526020600020906008020160050160009054906101000a90046001600160a01b03169050806001600160a01b03166323b872dd30336004878154811062000965576200096562001310565b60009182526020909120600260089092020101546040517fffffffff0000000000000000000000000000000000000000000000000000000060e086901b1681526001600160a01b03938416600482015292909116602483015260448201526064016020604051808303816000875af1158015620009e6573d6000803e3d6000fd5b505050506040513d601f19601f8201168201806040525081019062000a0c9190620012be565b505062000add565b600354600480546001600160a01b039092169182916323b872dd91309133918890811062000a465762000a4662001310565b60009182526020909120600360089092020101546040517fffffffff0000000000000000000000000000000000000000000000000000000060e086901b1681526001600160a01b0393841660048201529290911660248301526044820152606401600060405180830381600087803b15801562000ac257600080fd5b505af115801562000ad7573d6000803e3d6000fd5b50505050505b5062000aed565b60010162000758565b50805b60045462000b019060019062001326565b82101562000bfe57600462000b1882600162001342565b8154811062000b2b5762000b2b62001310565b90600052602060002090600802016004828154811062000b4f5762000b4f62001310565b600091825260209091208254600890920201908155600180830154818301805460ff909216151560ff1990921691909117905560028084015490830155600380840154908301556004808401549083015560058084015490830180546001600160a01b03199081166001600160a01b0393841617909155600680860154908501805483169184169190911790556007948501549490930180549093169316929092179055919091019062000af0565b50600480548062000c135762000c1362001358565b60008281526020812060086000199093019283020181815560018101805460ff191690556002810182905560038101829055600481018290556005810180546001600160a01b031990811690915560068083018054831690556007909201805490911690559190925580549162000c8a836200136e565b91905055505050565b600081815260016020526040908190205490516323b872dd60e01b81523360048201523060248201526103e860448201526001600160a01b0390911690819081906323b872dd906064016020604051808303816000875af115801562000cfd573d6000803e3d6000fd5b505050506040513d601f19601f8201168201806040525081019062000d239190620012be565b506003546040516323b872dd60e01b8152306004820152336024820152604481018590526001600160a01b039091169081906323b872dd90606401600060405180830381600087803b15801562000d7957600080fd5b505af115801562000d8e573d6000803e3d6000fd5b505050600085815260016020908152604080832080546001600160a01b03191690556001600160a01b03871683526002909152812081905590505b60055481101562000ed657836001600160a01b03166005828154811062000df45762000df462001310565b6000918252602090912001546001600160a01b03160362000ecd576005805462000e219060019062001326565b8154811062000e345762000e3462001310565b600091825260209091200154600580546001600160a01b03909216918390811062000e635762000e6362001310565b9060005260206000200160006101000a8154816001600160a01b0302191690836001600160a01b03160217905550600580548062000ea55762000ea562001358565b600082815260209020810160001990810180546001600160a01b031916905501905562000ed6565b60010162000dc9565b5050505050565b6004818154811062000eee57600080fd5b60009182526020909120600890910201805460018201546002830154600384015460048501546005860154600687015460079097015495975060ff909416959294919390926001600160a01b0391821692908216911688565b62000f5162000fa8565b6001600160a01b03811662000f9a576040517f1e4fbdf7000000000000000000000000000000000000000000000000000000008152600060048201526024015b60405180910390fd5b62000fa58162000ff0565b50565b6000546001600160a01b03163314620006ec576040517f118cdaa700000000000000000000000000000000000000000000000000000000815233600482015260240162000f91565b600080546001600160a01b038381166001600160a01b0319831681178455604051919092169283917f8be0079c531659141344cd1fd0a4f28419497f9722a3daafe3b4186f6b6457e09190a35050565b610da6806200138983390190565b60008083601f8401126200106157600080fd5b50813567ffffffffffffffff8111156200107a57600080fd5b6020830191508360208285010111156200109357600080fd5b9250929050565b60008060008060008060808789031215620010b457600080fd5b8635955060208701359450604087013567ffffffffffffffff80821115620010db57600080fd5b620010e98a838b016200104e565b909650945060608901359150808211156200110357600080fd5b506200111289828a016200104e565b979a9699509497509295939492505050565b801515811462000fa557600080fd5b80356001600160a01b03811681146200114b57600080fd5b919050565b600080600080600060a086880312156200116957600080fd5b8535620011768162001124565b94506020860135935060408601359250606086013591506200119b6080870162001133565b90509295509295909350565b600060208284031215620011ba57600080fd5b620011c58262001133565b9392505050565b6020808252825182820181905260009190848201906040850190845b818110156200120f5783516001600160a01b031683529284019291840191600101620011e8565b50909695505050505050565b6000602082840312156200122e57600080fd5b5035919050565b81835281816020850137506000828201602090810191909152601f909101601f19169091010190565b86815260a0602082015260006200127a60a08301878962001235565b82810360408401526200128f81868862001235565b9050828103606084015260008152602081019150506001600160a01b0383166080830152979650505050505050565b600060208284031215620012d157600080fd5b8151620011c58162001124565b634e487b7160e01b600052601160045260246000fd5b600060018201620013095762001309620012de565b5060010190565b634e487b7160e01b600052603260045260246000fd5b818103818111156200133c576200133c620012de565b92915050565b808201808211156200133c576200133c620012de565b634e487b7160e01b600052603160045260246000fd5b600081620013805762001380620012de565b50600019019056fe60806040523480156200001157600080fd5b5060405162000da638038062000da68339810160408190526200003491620002c5565b8383600362000044838262000416565b50600462000053828262000416565b5050506200006881866200008860201b60201c565b600562000076838262000416565b505050600692909255506200050a9050565b6001600160a01b038216620000b85760405163ec442f0560e01b8152600060048201526024015b60405180910390fd5b620000c660008383620000ca565b5050565b6001600160a01b038316620000f9578060026000828254620000ed9190620004e2565b909155506200016d9050565b6001600160a01b038316600090815260208190526040902054818110156200014e5760405163391434e360e21b81526001600160a01b03851660048201526024810182905260448101839052606401620000af565b6001600160a01b03841660009081526020819052604090209082900390555b6001600160a01b0382166200018b57600280548290039055620001aa565b6001600160a01b03821660009081526020819052604090208054820190555b816001600160a01b0316836001600160a01b03167fddf252ad1be2c89b69c2b068fc378daa952ba7f163c4a11628f55a4df523b3ef83604051620001f091815260200190565b60405180910390a3505050565b634e487b7160e01b600052604160045260246000fd5b600082601f8301126200022557600080fd5b81516001600160401b0380821115620002425762000242620001fd565b604051601f8301601f19908116603f011681019082821181831017156200026d576200026d620001fd565b81604052838152602092508660208588010111156200028b57600080fd5b600091505b83821015620002af578582018301518183018401529082019062000290565b6000602085830101528094505050505092915050565b600080600080600060a08688031215620002de57600080fd5b855160208701519095506001600160401b0380821115620002fe57600080fd5b6200030c89838a0162000213565b955060408801519150808211156200032357600080fd5b6200033189838a0162000213565b945060608801519150808211156200034857600080fd5b50620003578882890162000213565b608088015190935090506001600160a01b03811681146200037757600080fd5b809150509295509295909350565b600181811c908216806200039a57607f821691505b602082108103620003bb57634e487b7160e01b600052602260045260246000fd5b50919050565b601f82111562000411576000816000526020600020601f850160051c81016020861015620003ec5750805b601f850160051c820191505b818110156200040d57828155600101620003f8565b5050505b505050565b81516001600160401b03811115620004325762000432620001fd565b6200044a8162000443845462000385565b84620003c1565b602080601f831160018114620004825760008415620004695750858301515b600019600386901b1c1916600185901b1785556200040d565b600085815260208120601f198616915b82811015620004b35788860151825594840194600190910190840162000492565b5085821015620004d25787850151600019600388901b60f8161c191681555b5050505050600190811b01905550565b808201808211156200050457634e487b7160e01b600052601160045260246000fd5b92915050565b61088c806200051a6000396000f3fe608060405234801561001057600080fd5b50600436106100c95760003560e01c8063313ce5671161008157806395d89b411161005b57806395d89b411461017d578063a9059cbb14610185578063dd62ed3e1461019857600080fd5b8063313ce5671461013d57806370a082311461014c5780637284e4161461017557600080fd5b8063095ea7b3116100b2578063095ea7b3146100ff57806318160ddd1461012257806323b872dd1461012a57600080fd5b8063047fc9aa146100ce57806306fdde03146100ea575b600080fd5b6100d760065481565b6040519081526020015b60405180910390f35b6100f26101d1565b6040516100e191906106d5565b61011261010d366004610740565b610263565b60405190151581526020016100e1565b6002546100d7565b61011261013836600461076a565b61027d565b604051601281526020016100e1565b6100d761015a3660046107a6565b6001600160a01b031660009081526020819052604090205490565b6100f26102a1565b6100f261032f565b610112610193366004610740565b61033e565b6100d76101a63660046107c8565b6001600160a01b03918216600090815260016020908152604080832093909416825291909152205490565b6060600380546101e0906107fb565b80601f016020809104026020016040519081016040528092919081815260200182805461020c906107fb565b80156102595780601f1061022e57610100808354040283529160200191610259565b820191906000526020600020905b81548152906001019060200180831161023c57829003601f168201915b5050505050905090565b60003361027181858561034c565b60019150505b92915050565b60003361028b85828561035e565b6102968585856103fa565b506001949350505050565b600580546102ae906107fb565b80601f01602080910402602001604051908101604052809291908181526020018280546102da906107fb565b80156103275780601f106102fc57610100808354040283529160200191610327565b820191906000526020600020905b81548152906001019060200180831161030a57829003601f168201915b505050505081565b6060600480546101e0906107fb565b6000336102718185856103fa565b610359838383600161048b565b505050565b6001600160a01b0383811660009081526001602090815260408083209386168352929052205460001981146103f457818110156103e5576040517ffb8f41b20000000000000000000000000000000000000000000000000000000081526001600160a01b038416600482015260248101829052604481018390526064015b60405180910390fd5b6103f48484848403600061048b565b50505050565b6001600160a01b03831661043d576040517f96c6fd1e000000000000000000000000000000000000000000000000000000008152600060048201526024016103dc565b6001600160a01b038216610480576040517fec442f05000000000000000000000000000000000000000000000000000000008152600060048201526024016103dc565b610359838383610592565b6001600160a01b0384166104ce576040517fe602df05000000000000000000000000000000000000000000000000000000008152600060048201526024016103dc565b6001600160a01b038316610511576040517f94280d62000000000000000000000000000000000000000000000000000000008152600060048201526024016103dc565b6001600160a01b03808516600090815260016020908152604080832093871683529290522082905580156103f457826001600160a01b0316846001600160a01b03167f8c5be1e5ebec7d5bd14f71427d1e84f3dd0314c0f7b2291e5b200ac8c7c3b9258460405161058491815260200190565b60405180910390a350505050565b6001600160a01b0383166105bd5780600260008282546105b29190610835565b909155506106489050565b6001600160a01b03831660009081526020819052604090205481811015610629576040517fe450d38c0000000000000000000000000000000000000000000000000000000081526001600160a01b038516600482015260248101829052604481018390526064016103dc565b6001600160a01b03841660009081526020819052604090209082900390555b6001600160a01b03821661066457600280548290039055610683565b6001600160a01b03821660009081526020819052604090208054820190555b816001600160a01b0316836001600160a01b03167fddf252ad1be2c89b69c2b068fc378daa952ba7f163c4a11628f55a4df523b3ef836040516106c891815260200190565b60405180910390a3505050565b60006020808352835180602085015260005b81811015610703578581018301518582016040015282016106e7565b506000604082860101526040601f19601f8301168501019250505092915050565b80356001600160a01b038116811461073b57600080fd5b919050565b6000806040838503121561075357600080fd5b61075c83610724565b946020939093013593505050565b60008060006060848603121561077f57600080fd5b61078884610724565b925061079660208501610724565b9150604084013590509250925092565b6000602082840312156107b857600080fd5b6107c182610724565b9392505050565b600080604083850312156107db57600080fd5b6107e483610724565b91506107f260208401610724565b90509250929050565b600181811c9082168061080f57607f821691505b60208210810361082f57634e487b7160e01b600052602260045260246000fd5b50919050565b8082018082111561027757634e487b7160e01b600052601160045260246000fdfea2646970667358221220d12019f4fd8aaf1fdc6871565752e7a3b89657d4490509da82838bdb2c965cfc64736f6c63430008180033a2646970667358221220f2fbb0dfdfeaf7f1b3159aac356f4750b3b88c191571834237caee3f977b0c5464736f6c63430008180033",
  "linkReferences": {},
  "deployedLinkReferences": {}
}