{
  "_format": "hh-sol-artifact-1",
  "contractName": "LiquidityPools",
  "sourceName": "contracts/DeFI.sol",
  "abi": [
    {
      "inputs": [
        {
          "internalType": "address",
          "name": "_gameShop",
          "type": "address"
        }
      ],
      "stateMutability": "nonpayable",
      "type": "constructor"
    },
    {
      "inputs": [
        {
          "internalType": "address",
          "name": "owner",
          "type": "address"
        }
      ],
      "name": "OwnableInvalidOwner",
      "type": "error"
    },
    {
      "inputs": [
        {
          "internalType": "address",
          "name": "account",
          "type": "address"
        }
      ],
      "name": "OwnableUnauthorizedAccount",
      "type": "error"
    },
    {
      "anonymous": false,
      "inputs": [
        {
          "indexed": true,
          "internalType": "address",
          "name": "previousOwner",
          "type": "address"
        },
        {
          "indexed": true,
          "internalType": "address",
          "name": "newOwner",
          "type": "address"
        }
      ],
      "name": "OwnershipTransferred",
      "type": "event"
    },
    {
      "inputs": [
        {
          "internalType": "uint256",
          "name": "poolId",
          "type": "uint256"
        },
        {
          "internalType": "uint256",
          "name": "gameTokenAmount",
          "type": "uint256"
        },
        {
          "internalType": "uint256",
          "name": "vsTokenAmount",
          "type": "uint256"
        }
      ],
      "name": "addLiquidity",
      "outputs": [],
      "stateMutability": "nonpayable",
      "type": "function"
    },
    {
      "inputs": [
        {
          "internalType": "address",
          "name": "gameToken",
          "type": "address"
        },
        {
          "internalType": "address",
          "name": "vsToken",
          "type": "address"
        },
        {
          "internalType": "uint256",
          "name": "gameTokenAmount",
          "type": "uint256"
        },
        {
          "internalType": "uint256",
          "name": "vsTokenAmount",
          "type": "uint256"
        }
      ],
      "name": "createLiquidityPool",
      "outputs": [],
      "stateMutability": "nonpayable",
      "type": "function"
    },
    {
      "inputs": [],
      "name": "owner",
      "outputs": [
        {
          "internalType": "address",
          "name": "",
          "type": "address"
        }
      ],
      "stateMutability": "view",
      "type": "function"
    },
    {
      "inputs": [],
      "name": "renounceOwnership",
      "outputs": [],
      "stateMutability": "nonpayable",
      "type": "function"
    },
    {
      "inputs": [
        {
          "internalType": "uint256",
          "name": "poolId",
          "type": "uint256"
        },
        {
          "internalType": "address",
          "name": "token",
          "type": "address"
        },
        {
          "internalType": "uint256",
          "name": "amount",
          "type": "uint256"
        }
      ],
      "name": "swap",
      "outputs": [],
      "stateMutability": "nonpayable",
      "type": "function"
    },
    {
      "inputs": [
        {
          "internalType": "address",
          "name": "newOwner",
          "type": "address"
        }
      ],
      "name": "transferOwnership",
      "outputs": [],
      "stateMutability": "nonpayable",
      "type": "function"
    },
    {
      "inputs": [],
      "name": "viewPools",
      "outputs": [
        {
          "components": [
            {
              "internalType": "uint256",
              "name": "id",
              "type": "uint256"
            },
            {
              "internalType": "address",
              "name": "gameToken",
              "type": "address"
            },
            {
              "internalType": "address",
              "name": "vsToken",
              "type": "address"
            },
            {
              "internalType": "uint256",
              "name": "gameTokenAmount",
              "type": "uint256"
            },
            {
              "internalType": "uint256",
              "name": "vsTokenAmount",
              "type": "uint256"
            }
          ],
          "internalType": "struct LiquidityPools.Pool[]",
          "name": "p",
          "type": "tuple[]"
        }
      ],
      "stateMutability": "view",
      "type": "function"
    }
  ],
  "bytecode": "0x608060405234801561001057600080fd5b50604051610e42380380610e4283398101604081905261002f916100d9565b338061005557604051631e4fbdf760e01b81526000600482015260240160405180910390fd5b61005e81610089565b50600280546001600160a01b0319166001600160a01b03929092169190911790556000600355610109565b600080546001600160a01b038381166001600160a01b0319831681178455604051919092169283917f8be0079c531659141344cd1fd0a4f28419497f9722a3daafe3b4186f6b6457e09190a35050565b6000602082840312156100eb57600080fd5b81516001600160a01b038116811461010257600080fd5b9392505050565b610d2a806101186000396000f3fe608060405234801561001057600080fd5b506004361061007d5760003560e01c8063715018a61161005b578063715018a6146100c85780638da5cb5b146100d0578063ae2f3768146100eb578063f2fde38b146100fe57600080fd5b8063422f104314610082578063432643491461009757806343c354ad146100aa575b600080fd5b610095610090366004610ab7565b610111565b005b6100956100a5366004610aff565b610334565b6100b26105da565b6040516100bf9190610b34565b60405180910390f35b6100956106ff565b6000546040516001600160a01b0390911681526020016100bf565b6100956100f9366004610bae565b610713565b61009561010c366004610bf0565b610995565b6000838152600160208190526040909120908101546001600160a01b03166323b872dd336101476000546001600160a01b031690565b6040516001600160e01b031960e085901b1681526001600160a01b03928316600482015291166024820152604481018690526064016020604051808303816000875af115801561019b573d6000803e3d6000fd5b505050506040513d601f19601f820116820180604052508101906101bf9190610c12565b6102105760405162461bcd60e51b815260206004820152601660248201527f546f6b656e41207472616e73666572206661696c65640000000000000000000060448201526064015b60405180910390fd5b60028101546001600160a01b03166323b872dd336102366000546001600160a01b031690565b6040516001600160e01b031960e085901b1681526001600160a01b03928316600482015291166024820152604481018590526064016020604051808303816000875af115801561028a573d6000803e3d6000fd5b505050506040513d601f19601f820116820180604052508101906102ae9190610c12565b6102fa5760405162461bcd60e51b815260206004820152601660248201527f546f6b656e42207472616e73666572206661696c6564000000000000000000006044820152606401610207565b8281600301600082825461030e9190610c4a565b92505081905550818160040160008282546103299190610c4a565b909155505050505050565b6000838152600160208190526040909120908101546001600160a01b0384811691161480610371575060028101546001600160a01b038481169116145b6103bd5760405162461bcd60e51b815260206004820152601160248201527f496e76616c69642066726f6d546f6b656e0000000000000000000000000000006044820152606401610207565b60018101546001600160a01b03908116908416036104d75760006103ea82600301548360040154856109ec565b600283015460405163a9059cbb60e01b8152336004820152602481018390529192506001600160a01b03169063a9059cbb906044016020604051808303816000875af115801561043e573d6000803e3d6000fd5b505050506040513d601f19601f820116820180604052508101906104629190610c12565b61049c5760405162461bcd60e51b815260206004820152600b60248201526a14ddd85c0819985a5b195960aa1b6044820152606401610207565b828260030160008282546104b09190610c4a565b92505081905550808260040160008282546104cb9190610c63565b909155506105d4915050565b60006104ec82600401548360030154856109ec565b600183015460405163a9059cbb60e01b8152336004820152602481018390529192506001600160a01b03169063a9059cbb906044016020604051808303816000875af1158015610540573d6000803e3d6000fd5b505050506040513d601f19601f820116820180604052508101906105649190610c12565b61059e5760405162461bcd60e51b815260206004820152600b60248201526a14ddd85c0819985a5b195960aa1b6044820152606401610207565b828260040160008282546105b29190610c4a565b92505081905550808260030160008282546105cd9190610c63565b9091555050505b50505050565b606060035467ffffffffffffffff8111156105f7576105f7610c76565b60405190808252806020026020018201604052801561066c57816020015b6106596040518060a001604052806000815260200160006001600160a01b0316815260200160006001600160a01b0316815260200160008152602001600081525090565b8152602001906001900390816106155790505b50905060005b6003548110156106fb57600081815260016020818152604092839020835160a08101855281548152928101546001600160a01b039081169284019290925260028101549091169282019290925260038201546060820152600490910154608082015282518390839081106106e8576106e8610c8c565b6020908102919091010152600101610672565b5090565b610707610a14565b6107116000610a5a565b565b83836001600160a01b0382166323b872dd336107376000546001600160a01b031690565b6040516001600160e01b031960e085901b1681526001600160a01b03928316600482015291166024820152604481018790526064016020604051808303816000875af115801561078b573d6000803e3d6000fd5b505050506040513d601f19601f820116820180604052508101906107af9190610c12565b6107fb5760405162461bcd60e51b815260206004820152601260248201527f4661696c656420746f207472616e7366657200000000000000000000000000006044820152606401610207565b806001600160a01b03166323b872dd3361081d6000546001600160a01b031690565b6040516001600160e01b031960e085901b1681526001600160a01b03928316600482015291166024820152604481018690526064016020604051808303816000875af1158015610871573d6000803e3d6000fd5b505050506040513d601f19601f820116820180604052508101906108959190610c12565b6108e15760405162461bcd60e51b815260206004820152601260248201527f4661696c656420746f207472616e7366657200000000000000000000000000006044820152606401610207565b6040805160a081018252600380548083526001600160a01b03808b1660208086019182528b8316868801908152606087018c8152608088018c81526000968752600193849052988620885181559351928401805493861673ffffffffffffffffffffffffffffffffffffffff1994851617905590516002840180549190951692169190911790925590518184015593516004909401939093558054919261098783610ca2565b919050555050505050505050565b61099d610a14565b6001600160a01b0381166109e0576040517f1e4fbdf700000000000000000000000000000000000000000000000000000000815260006004820152602401610207565b6109e981610a5a565b50565b60006109f88285610c4a565b610a028484610cbb565b610a0c9190610cd2565b949350505050565b6000546001600160a01b03163314610711576040517f118cdaa7000000000000000000000000000000000000000000000000000000008152336004820152602401610207565b600080546001600160a01b0383811673ffffffffffffffffffffffffffffffffffffffff19831681178455604051919092169283917f8be0079c531659141344cd1fd0a4f28419497f9722a3daafe3b4186f6b6457e09190a35050565b600080600060608486031215610acc57600080fd5b505081359360208301359350604090920135919050565b80356001600160a01b0381168114610afa57600080fd5b919050565b600080600060608486031215610b1457600080fd5b83359250610b2460208501610ae3565b9150604084013590509250925092565b602080825282518282018190526000919060409081850190868401855b82811015610ba157815180518552868101516001600160a01b0390811688870152868201511686860152606080820151908601526080908101519085015260a09093019290850190600101610b51565b5091979650505050505050565b60008060008060808587031215610bc457600080fd5b610bcd85610ae3565b9350610bdb60208601610ae3565b93969395505050506040820135916060013590565b600060208284031215610c0257600080fd5b610c0b82610ae3565b9392505050565b600060208284031215610c2457600080fd5b81518015158114610c0b57600080fd5b634e487b7160e01b600052601160045260246000fd5b80820180821115610c5d57610c5d610c34565b92915050565b81810381811115610c5d57610c5d610c34565b634e487b7160e01b600052604160045260246000fd5b634e487b7160e01b600052603260045260246000fd5b600060018201610cb457610cb4610c34565b5060010190565b8082028115828204841417610c5d57610c5d610c34565b600082610cef57634e487b7160e01b600052601260045260246000fd5b50049056fea2646970667358221220804b6d3c402585349123fcfa61b4b5b0cd10c721d2652f818424834d4af883e364736f6c63430008180033",
  "linkReferences": {},
  "deployedLinkReferences": {}
}