{
  "_format": "hh-sol-artifact-1",
  "contractName": "DAO",
  "sourceName": "contracts/DAO.sol",
  "abi": [
    {
      "inputs": [
        {
          "internalType": "address",
          "name": "_gameContract",
          "type": "address"
        },
        {
          "internalType": "address",
          "name": "_gameShopContract",
          "type": "address"
        }
      ],
      "stateMutability": "nonpayable",
      "type": "constructor"
    },
    {
      "inputs": [
        {
          "internalType": "address",
          "name": "owner",
          "type": "address"
        }
      ],
      "name": "OwnableInvalidOwner",
      "type": "error"
    },
    {
      "inputs": [
        {
          "internalType": "address",
          "name": "account",
          "type": "address"
        }
      ],
      "name": "OwnableUnauthorizedAccount",
      "type": "error"
    },
    {
      "anonymous": false,
      "inputs": [
        {
          "indexed": true,
          "internalType": "address",
          "name": "previousOwner",
          "type": "address"
        },
        {
          "indexed": true,
          "internalType": "address",
          "name": "newOwner",
          "type": "address"
        }
      ],
      "name": "OwnershipTransferred",
      "type": "event"
    },
    {
      "inputs": [
        {
          "internalType": "uint256",
          "name": "gameId",
          "type": "uint256"
        },
        {
          "internalType": "string",
          "name": "code",
          "type": "string"
        }
      ],
      "name": "createProposal",
      "outputs": [],
      "stateMutability": "nonpayable",
      "type": "function"
    },
    {
      "inputs": [],
      "name": "owner",
      "outputs": [
        {
          "internalType": "address",
          "name": "",
          "type": "address"
        }
      ],
      "stateMutability": "view",
      "type": "function"
    },
    {
      "inputs": [],
      "name": "renounceOwnership",
      "outputs": [],
      "stateMutability": "nonpayable",
      "type": "function"
    },
    {
      "inputs": [
        {
          "internalType": "address",
          "name": "newOwner",
          "type": "address"
        }
      ],
      "name": "transferOwnership",
      "outputs": [],
      "stateMutability": "nonpayable",
      "type": "function"
    },
    {
      "inputs": [
        {
          "internalType": "uint256",
          "name": "gameId",
          "type": "uint256"
        }
      ],
      "name": "viewProposals",
      "outputs": [
        {
          "components": [
            {
              "internalType": "uint256",
              "name": "gameNum",
              "type": "uint256"
            },
            {
              "internalType": "string",
              "name": "code",
              "type": "string"
            },
            {
              "internalType": "uint256",
              "name": "votes",
              "type": "uint256"
            }
          ],
          "internalType": "struct DAO.Proposal[]",
          "name": "p",
          "type": "tuple[]"
        }
      ],
      "stateMutability": "view",
      "type": "function"
    },
    {
      "inputs": [
        {
          "internalType": "uint256",
          "name": "gameId",
          "type": "uint256"
        },
        {
          "internalType": "uint256",
          "name": "proposalId",
          "type": "uint256"
        }
      ],
      "name": "vote",
      "outputs": [],
      "stateMutability": "nonpayable",
      "type": "function"
    }
  ],
  "bytecode": "0x608060405234801561001057600080fd5b506040516111a53803806111a583398101604081905261002f916100fc565b338061005557604051631e4fbdf760e01b81526000600482015260240160405180910390fd5b61005e81610090565b50600180546001600160a01b039384166001600160a01b0319918216179091556002805492909316911617905561012f565b600080546001600160a01b038381166001600160a01b0319831681178455604051919092169283917f8be0079c531659141344cd1fd0a4f28419497f9722a3daafe3b4186f6b6457e09190a35050565b80516001600160a01b03811681146100f757600080fd5b919050565b6000806040838503121561010f57600080fd5b610118836100e0565b9150610126602084016100e0565b90509250929050565b6110678061013e6000396000f3fe608060405234801561001057600080fd5b50600436106100725760003560e01c80638da5cb5b116100505780638da5cb5b146100bd578063b384abef146100d8578063f2fde38b146100eb57600080fd5b806302d52fa414610077578063715018a61461008c57806389ba7c1314610094575b600080fd5b61008a610085366004610bbf565b6100fe565b005b61008a61047d565b6100a76100a2366004610c3b565b610491565b6040516100b49190610c54565b60405180910390f35b6000546040516001600160a01b0390911681526020016100b4565b61008a6100e6366004610d0b565b61061e565b61008a6100f9366004610d42565b610a6c565b6002546040516364dfcd3f60e11b8152600481018590526001600160a01b0390911690600090829063c9bf9a7e90602401602060405180830381865afa15801561014c573d6000803e3d6000fd5b505050506040513d601f19601f820116820180604052508101906101709190610d66565b6040516370a0823160e01b815233600482015290915081906000906001600160a01b038316906370a0823190602401602060405180830381865afa1580156101bc573d6000803e3d6000fd5b505050506040513d601f19601f820116820180604052508101906101e09190610d83565b116102325760405162461bcd60e51b815260206004820152601060248201527f4e6f7420612044414f206d656d6265720000000000000000000000000000000060448201526064015b60405180910390fd5b806001600160a01b03166323b872dd336102546000546001600160a01b031690565b6040516370a0823160e01b81523360048201526001600160a01b038616906370a0823190602401602060405180830381865afa158015610298573d6000803e3d6000fd5b505050506040513d601f19601f820116820180604052508101906102bc9190610d83565b6040517fffffffff0000000000000000000000000000000000000000000000000000000060e086901b1681526001600160a01b03938416600482015292909116602483015260448201526064016020604051808303816000875af1158015610328573d6000803e3d6000fd5b505050506040513d601f19601f8201168201806040525081019061034c9190610d9c565b506000604051806060016040528088815260200187878080601f0160208091040260200160405190810160405280939291908181526020018383808284376000920191909152505050908252506040516370a0823160e01b81523360048201526020909101906001600160a01b038516906370a0823190602401602060405180830381865afa1580156103e3573d6000803e3d6000fd5b505050506040513d601f19601f820116820180604052508101906104079190610d83565b905260008881526004602090815260408083205460038352818420818552835292208351815590830151929350909183919060018201906104489082610e59565b506040918201516002909101556000898152600460205290812080549161046e83610f2f565b91905055505050505050505050565b610485610ac3565b61048f6000610b09565b565b60008181526004602052604090205460609067ffffffffffffffff8111156104bb576104bb610dbe565b60405190808252806020026020018201604052801561051057816020015b6104fd60405180606001604052806000815260200160608152602001600081525090565b8152602001906001900390816104d95790505b50905060005b60008381526004602052604090205481101561061857600083815260036020908152604080832084845282529182902082516060810190935280548352600181018054919284019161056790610dd4565b80601f016020809104026020016040519081016040528092919081815260200182805461059390610dd4565b80156105e05780601f106105b5576101008083540402835291602001916105e0565b820191906000526020600020905b8154815290600101906020018083116105c357829003601f168201915b5050505050815260200160028201548152505082828151811061060557610605610f48565b6020908102919091010152600101610516565b50919050565b6002546040516364dfcd3f60e11b8152600481018490526001600160a01b0390911690600090829063c9bf9a7e90602401602060405180830381865afa15801561066c573d6000803e3d6000fd5b505050506040513d601f19601f820116820180604052508101906106909190610d66565b6040516370a0823160e01b815233600482015290915081906000906001600160a01b038316906370a0823190602401602060405180830381865afa1580156106dc573d6000803e3d6000fd5b505050506040513d601f19601f820116820180604052508101906107009190610d83565b1161074d5760405162461bcd60e51b815260206004820152601060248201527f4e6f7420612044414f206d656d626572000000000000000000000000000000006044820152606401610229565b806001600160a01b03166323b872dd3361076f6000546001600160a01b031690565b6040516370a0823160e01b81523360048201526001600160a01b038616906370a0823190602401602060405180830381865afa1580156107b3573d6000803e3d6000fd5b505050506040513d601f19601f820116820180604052508101906107d79190610d83565b6040517fffffffff0000000000000000000000000000000000000000000000000000000060e086901b1681526001600160a01b03938416600482015292909116602483015260448201526064016020604051808303816000875af1158015610843573d6000803e3d6000fd5b505050506040513d601f19601f820116820180604052508101906108679190610d9c565b506040516370a0823160e01b81523360048201526001600160a01b038216906370a0823190602401602060405180830381865afa1580156108ac573d6000803e3d6000fd5b505050506040513d601f19601f820116820180604052508101906108d09190610d83565b6000868152600360209081526040808320888452909152812060020180549091906108fc908490610f5e565b925050819055506002816001600160a01b031663047fc9aa6040518163ffffffff1660e01b8152600401602060405180830381865afa158015610943573d6000803e3d6000fd5b505050506040513d601f19601f820116820180604052508101906109679190610d83565b6109719190610f77565b60008681526003602090815260408083208884529091529020600201541115610a65576001805460008781526003602090815260408083208984529091529081902090517f0cad84420000000000000000000000000000000000000000000000000000000081526001600160a01b03909216928392630cad8442926109fd928b92910190600401610f99565b600060405180830381600087803b158015610a1757600080fd5b505af1158015610a2b573d6000803e3d6000fd5b505050600087815260036020908152604080832089845290915281208181559150610a596001830182610b71565b60028201600090555050505b5050505050565b610a74610ac3565b6001600160a01b038116610ab7576040517f1e4fbdf700000000000000000000000000000000000000000000000000000000815260006004820152602401610229565b610ac081610b09565b50565b6000546001600160a01b0316331461048f576040517f118cdaa7000000000000000000000000000000000000000000000000000000008152336004820152602401610229565b600080546001600160a01b038381167fffffffffffffffffffffffff0000000000000000000000000000000000000000831681178455604051919092169283917f8be0079c531659141344cd1fd0a4f28419497f9722a3daafe3b4186f6b6457e09190a35050565b508054610b7d90610dd4565b6000825580601f10610b8d575050565b601f016020900490600052602060002090810190610ac091905b80821115610bbb5760008155600101610ba7565b5090565b600080600060408486031215610bd457600080fd5b83359250602084013567ffffffffffffffff80821115610bf357600080fd5b818601915086601f830112610c0757600080fd5b813581811115610c1657600080fd5b876020828501011115610c2857600080fd5b6020830194508093505050509250925092565b600060208284031215610c4d57600080fd5b5035919050565b600060208083018184528085518083526040925060408601915060408160051b8701018488016000805b84811015610cfc57603f198a8503018652825160608151865289820151818b880152805180838901528592505b80831015610cc9578183018c015188840160800152918b0191610cab565b8781016080908101879052938b01518b890152988b0198601f01601f191690960190910194505091870191600101610c7e565b50919998505050505050505050565b60008060408385031215610d1e57600080fd5b50508035926020909101359150565b6001600160a01b0381168114610ac057600080fd5b600060208284031215610d5457600080fd5b8135610d5f81610d2d565b9392505050565b600060208284031215610d7857600080fd5b8151610d5f81610d2d565b600060208284031215610d9557600080fd5b5051919050565b600060208284031215610dae57600080fd5b81518015158114610d5f57600080fd5b634e487b7160e01b600052604160045260246000fd5b600181811c90821680610de857607f821691505b60208210810361061857634e487b7160e01b600052602260045260246000fd5b601f821115610e54576000816000526020600020601f850160051c81016020861015610e315750805b601f850160051c820191505b81811015610e5057828155600101610e3d565b5050505b505050565b815167ffffffffffffffff811115610e7357610e73610dbe565b610e8781610e818454610dd4565b84610e08565b602080601f831160018114610ebc5760008415610ea45750858301515b600019600386901b1c1916600185901b178555610e50565b600085815260208120601f198616915b82811015610eeb57888601518255948401946001909101908401610ecc565b5085821015610f095787850151600019600388901b60f8161c191681555b5050505050600190811b01905550565b634e487b7160e01b600052601160045260246000fd5b600060018201610f4157610f41610f19565b5060010190565b634e487b7160e01b600052603260045260246000fd5b80820180821115610f7157610f71610f19565b92915050565b600082610f9457634e487b7160e01b600052601260045260246000fd5b500490565b828152600060206040602084015260008454610fb481610dd4565b8060408701526060600180841660008114610fd65760018114610ff257611022565b60ff19851660608a0152606084151560051b8a01019550611022565b89600052602060002060005b858110156110195781548b8201860152908301908801610ffe565b8a016060019650505b5093999850505050505050505056fea2646970667358221220dd868594f54d2bddbe190471740aff49e6f70d1acf9d6c779bcce33b860cbaf064736f6c63430008180033",
  "linkReferences": {},
  "deployedLinkReferences": {}
}